{
  "_format": "hh-sol-artifact-1",
  "contractName": "QuantumPrivacyCompute",
  "sourceName": "contracts/QuantumPrivacyCompute.sol",
  "abi": [
    {
      "inputs": [],
      "stateMutability": "nonpayable",
      "type": "constructor"
    },
    {
      "anonymous": false,
      "inputs": [
        {
          "indexed": true,
          "internalType": "uint256",
          "name": "circuitId",
          "type": "uint256"
        },
        {
          "indexed": false,
          "internalType": "uint256",
          "name": "depth",
          "type": "uint256"
        }
      ],
      "name": "CircuitCompiled",
      "type": "event"
    },
    {
      "anonymous": false,
      "inputs": [
        {
          "indexed": true,
          "internalType": "address",
          "name": "user1",
          "type": "address"
        },
        {
          "indexed": true,
          "internalType": "address",
          "name": "user2",
          "type": "address"
        }
      ],
      "name": "EntanglementCreated",
      "type": "event"
    },
    {
      "anonymous": false,
      "inputs": [
        {
          "indexed": true,
          "internalType": "address",
          "name": "node",
          "type": "address"
        }
      ],
      "name": "NodeAuthorized",
      "type": "event"
    },
    {
      "anonymous": false,
      "inputs": [
        {
          "indexed": true,
          "internalType": "uint256",
          "name": "jobId",
          "type": "uint256"
        },
        {
          "indexed": true,
          "internalType": "address",
          "name": "submitter",
          "type": "address"
        }
      ],
      "name": "QuantumJobCompleted",
      "type": "event"
    },
    {
      "anonymous": false,
      "inputs": [
        {
          "indexed": true,
          "internalType": "uint256",
          "name": "jobId",
          "type": "uint256"
        },
        {
          "indexed": true,
          "internalType": "address",
          "name": "submitter",
          "type": "address"
        },
        {
          "indexed": false,
          "internalType": "uint8",
          "name": "algorithmType",
          "type": "uint8"
        }
      ],
      "name": "QuantumJobSubmitted",
      "type": "event"
    },
    {
      "anonymous": false,
      "inputs": [
        {
          "indexed": true,
          "internalType": "uint256",
          "name": "requestId",
          "type": "uint256"
        },
        {
          "indexed": false,
          "internalType": "uint8",
          "name": "decryptedValue",
          "type": "uint8"
        }
      ],
      "name": "QuantumResultDecrypted",
      "type": "event"
    },
    {
      "anonymous": false,
      "inputs": [
        {
          "indexed": true,
          "internalType": "address",
          "name": "user",
          "type": "address"
        },
        {
          "indexed": false,
          "internalType": "uint8",
          "name": "qubitCount",
          "type": "uint8"
        }
      ],
      "name": "QuantumStateInitialized",
      "type": "event"
    },
    {
      "inputs": [],
      "name": "MAX_QUBITS",
      "outputs": [
        {
          "internalType": "uint256",
          "name": "",
          "type": "uint256"
        }
      ],
      "stateMutability": "view",
      "type": "function"
    },
    {
      "inputs": [
        {
          "internalType": "address",
          "name": "_node",
          "type": "address"
        }
      ],
      "name": "authorizeNode",
      "outputs": [],
      "stateMutability": "nonpayable",
      "type": "function"
    },
    {
      "inputs": [
        {
          "internalType": "address",
          "name": "",
          "type": "address"
        }
      ],
      "name": "authorizedNodes",
      "outputs": [
        {
          "internalType": "bool",
          "name": "",
          "type": "bool"
        }
      ],
      "stateMutability": "view",
      "type": "function"
    },
    {
      "inputs": [
        {
          "internalType": "uint256",
          "name": "_circuitId",
          "type": "uint256"
        },
        {
          "internalType": "uint8[]",
          "name": "_gateTypes",
          "type": "uint8[]"
        },
        {
          "internalType": "uint8[]",
          "name": "_targetQubits",
          "type": "uint8[]"
        },
        {
          "internalType": "uint8[]",
          "name": "_controlQubits",
          "type": "uint8[]"
        }
      ],
      "name": "compileQuantumCircuit",
      "outputs": [],
      "stateMutability": "nonpayable",
      "type": "function"
    },
    {
      "inputs": [],
      "name": "computeJobCounter",
      "outputs": [
        {
          "internalType": "uint256",
          "name": "",
          "type": "uint256"
        }
      ],
      "stateMutability": "view",
      "type": "function"
    },
    {
      "inputs": [
        {
          "internalType": "uint256",
          "name": "",
          "type": "uint256"
        }
      ],
      "name": "computeJobs",
      "outputs": [
        {
          "internalType": "address",
          "name": "submitter",
          "type": "address"
        },
        {
          "internalType": "euint8",
          "name": "encryptedInput",
          "type": "bytes32"
        },
        {
          "internalType": "euint8",
          "name": "encryptedResult",
          "type": "bytes32"
        },
        {
          "internalType": "uint8",
          "name": "algorithmType",
          "type": "uint8"
        },
        {
          "internalType": "bool",
          "name": "isCompleted",
          "type": "bool"
        },
        {
          "internalType": "bool",
          "name": "isVerified",
          "type": "bool"
        },
        {
          "internalType": "uint256",
          "name": "submitTime",
          "type": "uint256"
        },
        {
          "internalType": "uint256",
          "name": "completeTime",
          "type": "uint256"
        },
        {
          "internalType": "uint256",
          "name": "gasUsed",
          "type": "uint256"
        }
      ],
      "stateMutability": "view",
      "type": "function"
    },
    {
      "inputs": [
        {
          "internalType": "address",
          "name": "_partner",
          "type": "address"
        }
      ],
      "name": "createEntanglement",
      "outputs": [],
      "stateMutability": "nonpayable",
      "type": "function"
    },
    {
      "inputs": [],
      "name": "emergencyPause",
      "outputs": [],
      "stateMutability": "nonpayable",
      "type": "function"
    },
    {
      "inputs": [
        {
          "internalType": "uint256",
          "name": "_jobId",
          "type": "uint256"
        }
      ],
      "name": "executeQuantumAlgorithm",
      "outputs": [],
      "stateMutability": "nonpayable",
      "type": "function"
    },
    {
      "inputs": [
        {
          "internalType": "uint256",
          "name": "_circuitId",
          "type": "uint256"
        }
      ],
      "name": "getCircuitInfo",
      "outputs": [
        {
          "internalType": "uint8[]",
          "name": "gateTypes",
          "type": "uint8[]"
        },
        {
          "internalType": "uint8[]",
          "name": "targetQubits",
          "type": "uint8[]"
        },
        {
          "internalType": "bool",
          "name": "isCompiled",
          "type": "bool"
        },
        {
          "internalType": "uint256",
          "name": "depth",
          "type": "uint256"
        }
      ],
      "stateMutability": "view",
      "type": "function"
    },
    {
      "inputs": [
        {
          "internalType": "uint256",
          "name": "_jobId",
          "type": "uint256"
        }
      ],
      "name": "getJobInfo",
      "outputs": [
        {
          "internalType": "address",
          "name": "submitter",
          "type": "address"
        },
        {
          "internalType": "uint8",
          "name": "algorithmType",
          "type": "uint8"
        },
        {
          "internalType": "bool",
          "name": "isCompleted",
          "type": "bool"
        },
        {
          "internalType": "bool",
          "name": "isVerified",
          "type": "bool"
        },
        {
          "internalType": "uint256",
          "name": "submitTime",
          "type": "uint256"
        },
        {
          "internalType": "uint256",
          "name": "completeTime",
          "type": "uint256"
        },
        {
          "internalType": "uint256",
          "name": "gasUsed",
          "type": "uint256"
        }
      ],
      "stateMutability": "view",
      "type": "function"
    },
    {
      "inputs": [
        {
          "internalType": "uint256",
          "name": "_jobId",
          "type": "uint256"
        }
      ],
      "name": "getJobResult",
      "outputs": [
        {
          "internalType": "bytes",
          "name": "",
          "type": "bytes"
        }
      ],
      "stateMutability": "view",
      "type": "function"
    },
    {
      "inputs": [],
      "name": "getPauserCount",
      "outputs": [
        {
          "internalType": "uint256",
          "name": "",
          "type": "uint256"
        }
      ],
      "stateMutability": "pure",
      "type": "function"
    },
    {
      "inputs": [
        {
          "internalType": "address",
          "name": "_user",
          "type": "address"
        }
      ],
      "name": "getQuantumStateInfo",
      "outputs": [
        {
          "internalType": "uint8",
          "name": "qubitCount",
          "type": "uint8"
        },
        {
          "internalType": "bool",
          "name": "isEntangled",
          "type": "bool"
        },
        {
          "internalType": "uint256",
          "name": "timestamp",
          "type": "uint256"
        }
      ],
      "stateMutability": "view",
      "type": "function"
    },
    {
      "inputs": [
        {
          "internalType": "address",
          "name": "_user",
          "type": "address"
        }
      ],
      "name": "getUserJobHistory",
      "outputs": [
        {
          "internalType": "uint256[]",
          "name": "",
          "type": "uint256[]"
        }
      ],
      "stateMutability": "view",
      "type": "function"
    },
    {
      "inputs": [
        {
          "internalType": "uint8[]",
          "name": "_amplitudes",
          "type": "uint8[]"
        },
        {
          "internalType": "uint8",
          "name": "_qubitCount",
          "type": "uint8"
        }
      ],
      "name": "initializeQuantumState",
      "outputs": [],
      "stateMutability": "nonpayable",
      "type": "function"
    },
    {
      "inputs": [],
      "name": "isDecryptionAllowed",
      "outputs": [
        {
          "internalType": "bool",
          "name": "",
          "type": "bool"
        }
      ],
      "stateMutability": "view",
      "type": "function"
    },
    {
      "inputs": [],
      "name": "isSindCpadEnabled",
      "outputs": [
        {
          "internalType": "bool",
          "name": "",
          "type": "bool"
        }
      ],
      "stateMutability": "pure",
      "type": "function"
    },
    {
      "inputs": [
        {
          "internalType": "uint256",
          "name": "requestId",
          "type": "uint256"
        },
        {
          "internalType": "uint8",
          "name": "decryptedValue",
          "type": "uint8"
        }
      ],
      "name": "jobDecryptionCallback",
      "outputs": [
        {
          "internalType": "uint8",
          "name": "",
          "type": "uint8"
        }
      ],
      "stateMutability": "nonpayable",
      "type": "function"
    },
    {
      "inputs": [],
      "name": "owner",
      "outputs": [
        {
          "internalType": "address",
          "name": "",
          "type": "address"
        }
      ],
      "stateMutability": "view",
      "type": "function"
    },
    {
      "inputs": [],
      "name": "protocolId",
      "outputs": [
        {
          "internalType": "uint256",
          "name": "",
          "type": "uint256"
        }
      ],
      "stateMutability": "pure",
      "type": "function"
    },
    {
      "inputs": [
        {
          "internalType": "uint256",
          "name": "",
          "type": "uint256"
        }
      ],
      "name": "quantumCircuits",
      "outputs": [
        {
          "internalType": "bool",
          "name": "isCompiled",
          "type": "bool"
        },
        {
          "internalType": "uint256",
          "name": "depth",
          "type": "uint256"
        }
      ],
      "stateMutability": "view",
      "type": "function"
    },
    {
      "inputs": [
        {
          "internalType": "uint256",
          "name": "_jobId",
          "type": "uint256"
        }
      ],
      "name": "requestJobDecryption",
      "outputs": [
        {
          "internalType": "uint256",
          "name": "",
          "type": "uint256"
        }
      ],
      "stateMutability": "nonpayable",
      "type": "function"
    },
    {
      "inputs": [
        {
          "internalType": "address",
          "name": "_node",
          "type": "address"
        }
      ],
      "name": "revokeNodeAuthorization",
      "outputs": [],
      "stateMutability": "nonpayable",
      "type": "function"
    },
    {
      "inputs": [
        {
          "internalType": "uint8",
          "name": "_encryptedInput",
          "type": "uint8"
        },
        {
          "internalType": "uint8",
          "name": "_algorithmType",
          "type": "uint8"
        }
      ],
      "name": "submitQuantumJob",
      "outputs": [
        {
          "internalType": "uint256",
          "name": "",
          "type": "uint256"
        }
      ],
      "stateMutability": "nonpayable",
      "type": "function"
    },
    {
      "inputs": [
        {
          "internalType": "uint256",
          "name": "_newMax",
          "type": "uint256"
        }
      ],
      "name": "updateMaxQubits",
      "outputs": [],
      "stateMutability": "nonpayable",
      "type": "function"
    },
    {
      "inputs": [
        {
          "internalType": "address",
          "name": "",
          "type": "address"
        },
        {
          "internalType": "uint256",
          "name": "",
          "type": "uint256"
        }
      ],
      "name": "userJobHistory",
      "outputs": [
        {
          "internalType": "uint256",
          "name": "",
          "type": "uint256"
        }
      ],
      "stateMutability": "view",
      "type": "function"
    },
    {
      "inputs": [
        {
          "internalType": "uint256",
          "name": "_jobId",
          "type": "uint256"
        },
        {
          "internalType": "uint8",
          "name": "_expectedResult",
          "type": "uint8"
        }
      ],
      "name": "verifyQuantumResult",
      "outputs": [
        {
          "internalType": "bool",
          "name": "",
          "type": "bool"
        }
      ],
      "stateMutability": "nonpayable",
      "type": "function"
    }
  ],
  "bytecode": "0x608060405234801561000f575f80fd5b5061018a6100ae604080516080810182525f808252602082018190529181018290526060810191909152506040805160808101825273687820221192c5b662b25367f70076a37bc79b6c815273848b0066793bcc60346da1f49049357399b8d595602082015273a02cda4ca3a71d7c46997716f4283aa851c2881291810191909152731364cbbf2cdf5032c47d8226a6f6fbd2afcdacac606082015290565b80517f9e7b61f58c47dc699ac88507c4f5bb9f121c03808c5676a8078fe583e464970080546001600160a01b03199081166001600160a01b039384161790915560208301517f9e7b61f58c47dc699ac88507c4f5bb9f121c03808c5676a8078fe583e46497018054831691841691909117905560408301517f9e7b61f58c47dc699ac88507c4f5bb9f121c03808c5676a8078fe583e46497028054831691841691909117905560608301517f9e7b61f58c47dc699ac88507c4f5bb9f121c03808c5676a8078fe583e46497038054909216921691909117905550565b5f80546001600160a01b031916339081178255600180805590825260066020526040909120805460ff19169091179055611f2d806101c75f395ff3fe608060405234801561000f575f80fd5b50600436106101bb575f3560e01c80637e53a740116100f3578063cfe1fb2611610093578063ef8893f61161006e578063ef8893f614610563578063f165f9d914610576578063fbb257c714610589578063ffcf6732146105a9575f80fd5b8063cfe1fb261461048d578063da1f12ab146104a0578063eb1140aa146104a8575f80fd5b806391136b65116100ce57806391136b651461044757806392f3e52e1461044e578063acc72bc614610457578063beda629f1461046a575f80fd5b80637e53a740146103595780637f4497d81461037b5780638da5cb5b1461041d575f80fd5b806351858e271161015e5780635932cc57116101395780635932cc571461031957806375a565e314610320578063778be853146103335780637da3b90c14610346575f80fd5b806351858e27146102a057806355b6fe2e146102a857806356647acf146102bb575f80fd5b806330c7c79d1161019957806330c7c79d146102445780633b89dcab146102575780633fa44ca71461027757806346c9b6311461028d575f80fd5b806302cc5306146101bf578063147bfba5146101e957806327ee8a061461022f575b5f80fd5b6101d26101cd366004611a40565b6105bc565b60405160ff90911681526020015b60405180910390f35b6102186101f7366004611a6a565b600460208190525f9182526040909120600381015491015460ff9091169082565b6040805192151583526020830191909152016101e0565b61024261023d366004611a97565b6105ff565b005b60015b60405190151581526020016101e0565b61026a610265366004611a6a565b610651565b6040516101e09190611ab0565b61027f602081565b6040519081526020016101e0565b61024261029b366004611a6a565b61073a565b61024261098e565b61027f6102b6366004611afc565b6109b9565b6102fa6102c9366004611a97565b6001600160a01b03165f908152600360205260409020600181015460029091015460ff808316936101009093041691565b6040805160ff90941684529115156020840152908201526060016101e0565b6001610247565b61024761032e366004611a40565b610b9f565b610242610341366004611a6a565b610c49565b610242610354366004611b6c565b610c75565b610247610367366004611a97565b60066020525f908152604090205460ff1681565b6103d6610389366004611a6a565b5f90815260026020526040902080546003820154600483015460058401546006909401546001600160a01b039093169460ff80841695610100850482169562010000909504909116939091565b604080516001600160a01b03909816885260ff9096166020880152931515948601949094529015156060850152608084015260a083019190915260c082015260e0016101e0565b5f5461042f906001600160a01b031681565b6040516001600160a01b0390911681526020016101e0565b600361027f565b61027f60015481565b610242610465366004611a97565b610e3b565b61047d610478366004611a6a565b610eaf565b6040516101e09493929190611c45565b61027f61049b366004611a6a565b610fc2565b61271161027f565b6105116104b6366004611a6a565b600260208190525f918252604090912080546001820154928201546003830154600484015460058501546006909501546001600160a01b039094169594929360ff808416946101008504821694620100009004909116929189565b604080516001600160a01b03909a168a5260208a01989098529688019590955260ff90931660608701529015156080860152151560a085015260c084015260e0830152610100820152610120016101e0565b61027f610571366004611c7d565b6110b4565b610242610584366004611a97565b6110df565b61059c610597366004611a97565b611217565b6040516101e09190611ca5565b6102426105b7366004611ce8565b611280565b60405160ff821681525f9083907fa60d2a6a177270276fdea62212d459becbf18af6c2da9d6527a866fcefa036989060200160405180910390a250805b92915050565b5f546001600160a01b031633146106315760405162461bcd60e51b815260040161062890611d38565b60405180910390fd5b6001600160a01b03165f908152600660205260409020805460ff19169055565b5f8181526002602052604090208054606091906001600160a01b031633146106bb5760405162461bcd60e51b815260206004820152601d60248201527f4e6f7420617574686f72697a656420746f207669657720726573756c740000006044820152606401610628565b6003810154610100900460ff1661070c5760405162461bcd60e51b8152602060048201526015602482015274129bd8881b9bdd0818dbdb5c1b195d1959081e595d605a1b6044820152606401610628565b600281015460405160200161072391815260200190565b604051602081830303815290604052915050919050565b335f9081526006602052604090205460ff168061076057505f546001600160a01b031633145b6107ac5760405162461bcd60e51b815260206004820152601b60248201527f4e6f7420617574686f72697a656420636f6d70757465206e6f646500000000006044820152606401610628565b5f8181526002602052604090206003810154610100900460ff161561080b5760405162461bcd60e51b8152602060048201526015602482015274129bd888185b1c9958591e4818dbdb5c1b195d1959605a1b6044820152606401610628565b80546001600160a01b03166108575760405162461bcd60e51b8152602060048201526012602482015271129bd888191bd95cc81b9bdd08195e1a5cdd60721b6044820152606401610628565b5f5a60038301549091505f9060ff1681036108805761087983600101546114d4565b9050610901565b600383015460ff1660010361089c576108798360010154611505565b600383015460ff166002036108b857610879836001015461152a565b60038084015460ff1690036108d457610879836001015461154a565b600383015460ff166004036108f057610879836001015461156a565b6108fe83600101548561158a565b90505b6002830181905560038301805461ff0019166101001790554260058401555a61092a9083611d74565b6006840155610938816115d2565b50825461094f9082906001600160a01b03166115e1565b5082546040516001600160a01b039091169085907f9f0ea997e95a7a0146c50852f8c358b67d033999b5a3663a4a245e07c6b57468905f90a350505050565b5f546001600160a01b031633146109b75760405162461bcd60e51b815260040161062890611d38565b565b5f60058260ff161115610a075760405162461bcd60e51b8152602060048201526016602482015275496e76616c696420616c676f726974686d207479706560501b6044820152606401610628565b5f610a11846115ec565b9050610a1c816115d2565b50610a2781336115e1565b50600180545f9182610a3883611d87565b919050559050604051806101200160405280336001600160a01b03168152602001838152602001610a685f6115ec565b815260ff86811660208084018290525f604080860182905260608087018390524260808089019190915260a080890185905260c09889018590528a855260028087528486208b5181546001600160a01b0319166001600160a01b039091161781558b8801516001808301919091558c87015192820192909255938b0151600385018054948d0151938d015191909a1661ffff199094169390931761010092151583021762ff0000191662010000931515939093029290921790975596880151600482015560e088015160058083019190915595909701516006909701969096553380825293825285812080549586018155815281902090930185905592519283529183917f78cfde3423d325dda3aa0bfa430d01355b83a8a3a34b655a7073001ca6ac1f71910160405180910390a3949350505050565b5f82815260026020526040812080546001600160a01b03163314610bd55760405162461bcd60e51b815260040161062890611d38565b6003810154610100900460ff16610c225760405162461bcd60e51b8152602060048201526011602482015270129bd8881b9bdd0818dbdb5c1b195d1959607a1b6044820152606401610628565b5f610c2c846115ec565b5050600301805462ff000019166201000017905550600192915050565b5f546001600160a01b03163314610c725760405162461bcd60e51b815260040161062890611d38565b50565b848314610cc45760405162461bcd60e51b815260206004820152601860248201527f4d69736d617463686564206172726179206c656e6774687300000000000000006044820152606401610628565b6040518060a001604052808787808060200260200160405190810160405280939291908181526020018383602002808284375f9201919091525050509082525060408051602087810282810182019093528782529283019290918891889182918501908490808284375f9201919091525050509082525060408051602085810282810182019093528582529283019290918691869182918501908490808284375f9201829052509385525050600160208085019190915260409384018a90528b83526004815292909120835180519193610da393508492910190611941565b506020828101518051610dbc9260018501920190611941565b5060408201518051610dd8916002840191602090910190611941565b50606082015160038201805460ff191691151591909117905560809091015160049091015560405185815287907f20d8394be9faecc1b5583936df23a1a7d9d9ad609dba18254937c38fd307c8ef9060200160405180910390a250505050505050565b5f546001600160a01b03163314610e645760405162461bcd60e51b815260040161062890611d38565b6001600160a01b0381165f81815260066020526040808220805460ff19166001179055517f8638f01ed0471fe5cd807bb572bf42f715a4a2064a2c643b9d78bad2b95ec86f9190a250565b5f81815260046020818152604080842060038101549381015481548351818602810186019094528084526060968796909586958594600186019460ff909416939092869190830182828015610f3e57602002820191905f5260205f20905f905b825461010083900a900460ff16815260206001928301818104948501949093039092029101808411610f0f5790505b5050505050935082805480602002602001604051908101604052809291908181526020018280548015610fab57602002820191905f5260205f20905f905b825461010083900a900460ff16815260206001928301818104948501949093039092029101808411610f7c5790505b505050505092509450945094509450509193509193565b5f81815260026020526040812080546001600160a01b03163314610ff85760405162461bcd60e51b815260040161062890611d38565b6003810154610100900460ff166110495760405162461bcd60e51b8152602060048201526015602482015274129bd8881b9bdd0818dbdb5c1b195d1959081e595d605a1b6044820152606401610628565b6040805160018082528183019092525f91602080830190803683375050506002830154909150815f8151811061108157611081611db3565b60209081029190910101525f6110ab82630166298360e11b836110a5426064611dc7565b5f6115fb565b95945050505050565b6005602052815f5260405f2081815481106110cd575f80fd5b905f5260205f20015f91509150505481565b335f9081526003602052604090206001015460ff166111405760405162461bcd60e51b815260206004820152601e60248201527f496e697469616c697a65207175616e74756d20737461746520666972737400006044820152606401610628565b6001600160a01b0381165f9081526003602052604090206001015460ff166111aa5760405162461bcd60e51b815260206004820152601f60248201527f506172746e6572206d7573742068617665207175616e74756d207374617465006044820152606401610628565b335f818152600360205260408082206001908101805461010061ff001991821681179092556001600160a01b0387168086528486209093018054909116909117905590519092917fd8b37cb5135889bd4ba012553996cef8032434b4cd0ff22ad73f5784383e3d3d91a350565b6001600160a01b0381165f9081526005602090815260409182902080548351818402810184019094528084526060939283018282801561127457602002820191905f5260205f20905b815481526020019060010190808311611260575b50505050509050919050565b60088160ff1611156112cd5760405162461bcd60e51b815260206004820152601660248201527513585e080e081c5d589a5d1cc81cdd5c1c1bdc9d195960521b6044820152606401610628565b600160ff82161b82146113225760405162461bcd60e51b815260206004820152601c60248201527f496e76616c696420616d706c69747564652061727261792073697a65000000006044820152606401610628565b5f8267ffffffffffffffff81111561133c5761133c611d9f565b604051908082528060200260200182016040528015611365578160200160208202803683370190505b5090505f5b8381101561140e576113a185858381811061138757611387611db3565b905060200201602081019061139c9190611dda565b6115ec565b8282815181106113b3576113b3611db3565b6020026020010181815250506113e18282815181106113d4576113d4611db3565b60200260200101516115d2565b506114058282815181106113f7576113f7611db3565b6020026020010151336115e1565b5060010161136a565b506040805160808101825282815260ff84166020808301919091525f8284018190524260608401523381526003825292909220815180519293919261145692849201906119de565b50602082015160018201805460408086015115156101000261ffff1990921660ff909416939093171790556060909201516002909101555133907fe465784a883e269afc84c06c35cbec29d5c2b9d61d38a438abc505d83571df29906114c690859060ff91909116815260200190565b60405180910390a250505050565b5f806114e9836114e460016115ec565b611637565b90506114fe816114f960016115ec565b611665565b9392505050565b5f8061151a8361151560036115ec565b611693565b90506114fe816114e460076115ec565b5f8061153a836114e4602a6115ec565b90506114fe8161151560076115ec565b5f8061155a836114f9600d6115ec565b90506114fe816114e460646115ec565b5f8061157a8361151560056115ec565b90506114fe816114e460116115ec565b5f8181526004602052604081206003015460ff16156115cb576115c4836114e460045f8681526020019081526020015f20600401546115ec565b90506105f9565b5090919050565b5f6115dd82306116c1565b5090565b5f6115cb83836116c1565b5f6105f98260ff166002611737565b5f8585858585604051602001611615959493929190611df3565b60408051601f1981840301815291905280516020909101209695505050505050565b5f82611649576116465f6115ec565b92505b8161165a576116575f6115ec565b91505b6114fe83835f6117ce565b5f82611677576116745f6115ec565b92505b81611688576116855f6115ec565b91505b6114fe83835f61187b565b5f826116a5576116a25f6115ec565b92505b816116b6576116b35f6115ec565b91505b6114fe83835f6118de565b5f5f80516020611ed88339815191528054604051635ca4b5b160e11b8152600481018690526001600160a01b03858116602483015292935091169063b9496b62906044015f604051808303815f87803b15801561171c575f80fd5b505af115801561172e573d5f803e3d5ffd5b50505050505050565b5f80516020611eb883398151915254604051639cd07acb60e01b81525f915f80516020611ed8833981519152916001600160a01b0390911690639cd07acb906117869087908790600401611e50565b6020604051808303815f875af11580156117a2573d5f803e3d5ffd5b505050506040513d601f19601f820116820180604052508101906117c69190611e80565b949350505050565b5f8082156117e15750600160f81b6117e4565b505f5b5f80516020611eb88339815191525460405163022f65e760e31b81525f80516020611ed8833981519152916001600160a01b03169063117b2f389061183190899089908790600401611e97565b6020604051808303815f875af115801561184d573d5f803e3d5ffd5b505050506040513d601f19601f820116820180604052508101906118719190611e80565b9695505050505050565b5f80821561188e5750600160f81b611891565b505f5b5f80516020611eb8833981519152546040516303056db360e31b81525f80516020611ed8833981519152916001600160a01b03169063182b6d989061183190899089908790600401611e97565b5f8082156118f15750600160f81b6118f4565b505f5b5f80516020611eb883398151915254604051630afe14ad60e31b81525f80516020611ed8833981519152916001600160a01b0316906357f0a5689061183190899089908790600401611e97565b828054828255905f5260205f2090601f016020900481019282156119d2579160200282015f5b838211156119a457835183826101000a81548160ff021916908360ff16021790555092602001926001016020815f01049283019260010302611967565b80156119d05782816101000a81549060ff02191690556001016020815f010492830192600103026119a4565b505b506115dd929150611a17565b828054828255905f5260205f209081019282156119d2579160200282015b828111156119d25782518255916020019190600101906119fc565b5b808211156115dd575f8155600101611a18565b803560ff81168114611a3b575f80fd5b919050565b5f8060408385031215611a51575f80fd5b82359150611a6160208401611a2b565b90509250929050565b5f60208284031215611a7a575f80fd5b5035919050565b80356001600160a01b0381168114611a3b575f80fd5b5f60208284031215611aa7575f80fd5b6114fe82611a81565b5f602080835283518060208501525f5b81811015611adc57858101830151858201604001528201611ac0565b505f604082860101526040601f19601f8301168501019250505092915050565b5f8060408385031215611b0d575f80fd5b611b1683611a2b565b9150611a6160208401611a2b565b5f8083601f840112611b34575f80fd5b50813567ffffffffffffffff811115611b4b575f80fd5b6020830191508360208260051b8501011115611b65575f80fd5b9250929050565b5f805f805f805f6080888a031215611b82575f80fd5b87359650602088013567ffffffffffffffff80821115611ba0575f80fd5b611bac8b838c01611b24565b909850965060408a0135915080821115611bc4575f80fd5b611bd08b838c01611b24565b909650945060608a0135915080821115611be8575f80fd5b50611bf58a828b01611b24565b989b979a50959850939692959293505050565b5f815180845260208085019450602084015f5b83811015611c3a57815160ff1687529582019590820190600101611c1b565b509495945050505050565b608081525f611c576080830187611c08565b8281036020840152611c698187611c08565b941515604084015250506060015292915050565b5f8060408385031215611c8e575f80fd5b611c9783611a81565b946020939093013593505050565b602080825282518282018190525f9190848201906040850190845b81811015611cdc57835183529284019291840191600101611cc0565b50909695505050505050565b5f805f60408486031215611cfa575f80fd5b833567ffffffffffffffff811115611d10575f80fd5b611d1c86828701611b24565b9094509250611d2f905060208501611a2b565b90509250925092565b6020808252600e908201526d139bdd08185d5d1a1bdc9a5e995960921b604082015260600190565b634e487b7160e01b5f52601160045260245ffd5b818103818111156105f9576105f9611d60565b5f60018201611d9857611d98611d60565b5060010190565b634e487b7160e01b5f52604160045260245ffd5b634e487b7160e01b5f52603260045260245ffd5b808201808211156105f9576105f9611d60565b5f60208284031215611dea575f80fd5b6114fe82611a2b565b85515f9082906020808a01845b83811015611e1c57815185529382019390820190600101611e00565b505050506001600160e01b0319969096168652505060048401929092526024830152151560f81b6044820152604501919050565b8281526040810160548310611e7357634e487b7160e01b5f52602160045260245ffd5b8260208301529392505050565b5f60208284031215611e90575f80fd5b5051919050565b92835260208301919091526001600160f81b03191660408201526060019056fe9e7b61f58c47dc699ac88507c4f5bb9f121c03808c5676a8078fe583e46497019e7b61f58c47dc699ac88507c4f5bb9f121c03808c5676a8078fe583e4649700a2646970667358221220366e57e1382ab62ae93f54e17efb8c60184ef937a94417f9530a3643d600d7ee64736f6c63430008180033",
  "linkReferences": {},
  "deployedLinkReferences": {}
}